:040000008A15002835
:10000800FF00030E83018316CD000A08CC008A0185
:1000180070088312AE007108AD007208AC00730856
:10002800AB007408AA007508A9007608A80077082C
:10003800A7007808A6007908A5007A08A4007B081C
:10004800A3007C08A2007D08A1000B1D3528DE0A4C
:100058000319DF0AD90A0319DA0A383081000B11AB
:10006800D5280C1F78281E08F100F00183161E08F9
:10007800F0070318F10A0530F4000030F500B22447
:10008800DD240030F4000030F5000030F60089303F
:10009800F700FB2470088316AA007108AB007208E9
:1000A800AC007308AD0083126F1C76280030F40092
:1000B8000030F5000030F6008030F70083162A087B
:1000C800F0002B08F1002C08F2002D08F300C825D9
:1000D800013003180030F000700803197528071460
:1000E800762807100C13D5288B1CD5281F155E08F9
:1000F800F0005F08F100B2257008F4007108F500FF
:100108007208F6007308F7000030F0000030F100C4
:100118007A30F2008B30F300FB2470088316B200AB
:100128007108B3007208B4007308B50083126F1821
:10013800D22883163208F4003308F5003408F60094
:100148003508F7000030F0000030F1004430F200CC
:100158008430F300C825013003180030F00070081F
:100168000319D1280030F4000030F5004C30F600B7
:100178008430F70083163208F0003308F1003408A1
:10018800F2003508F300C825013003180030F000EC
:1001980070080319D1280714D2280710DE01DF01DF
:1001A8008B102E08F0002D08F1002C08F2002B0807
:1001B800F3002A08F4002908F5002808F6002708A3
:1001C800F7002608F8002508F9002408FA00230893
:1001D800FB002208FC002108FD0083164C088A0059
:0A01E8004D0E8300FF0E7F0E09008C
:0601F200000000000800FF
:1001F8000F3083120313FC004730FD00FD0B02296A
:0A020800FC0B0229000000000800B2
:0E021200213083120313FD00FD0B0D2908009F
:1002200083160313DC1B17298312881319298312E1
:10023000881783165C1B1F29831208132129831238
:1002400008178316DC1A272983128812292983129A
:10025000881683165C1A2F298312081231298312FB
:100260000816EF1835290815362908118815F920C0
:1002700088118316DC193F298312881341298312C0
:10028000881783165C19472983120813492983129A
:1002900008178316DC184F298312881251298312FC
:1002A000881683165C18572983120812592983125D
:1002B0000816EF185D2908155E2908118815F92020
:0E02C0008811EF1C6529FC2066290921080021
:0802CE00FA1FF21300300800D2
:1002D60083120313F801F9011030FC00710DF80DBB
:1002E600F90D7408F8027508031C750FF902031856
:1002F60083297408F80775080318750FF9070310A2
:0A030600F00DF10DFC0B7129080049
:100310007B15FB1F92290130F300F201F101F0017E
:08032000FA0DF20CFF30080099
:0E032800F201F101F001F801F30100300800CC
:0E0336008316031331088A0030088200080085
:10034400A0017208031DB7297108F2007008F100BA
:10035400F001A0157208031DB7297108F200F1011C
:10036400A011201672080319C5292008F302031DE1
:10037400031CC9290310F21BCD29F00DF10DF20D58
:10038400F30BBD29C9290130FC009421D029023086
:0E039400FC008821D0290430FC0067210800FD
:1003A2007B14FB1FDC29F201FA1FFF30F200F1007F
:0A03B200F000FA0DF20CFF30080015
:1003BC0083120313EF1083165708DC001021EF147F
:0203CC00080027
:1003CE00FB14FB1FF129FF30F300F200F100F000E7
:0803DE00FA0DF20CFF300800DB
:1003E60083160313DA0105305A020318012A5A0844
:1003F6005907840020308000DA0AF6295A0859077E
:1004060084008001DA035A085907DB000A30F40039
:10041600F5015708F0005808F1006B217808F00044
:100426007908F1003030F00783165B088400700805
:1004360080000A30F400F5015708F0005808F10072
:100446006B2170088316D7007108D800003071063A
:10045600031D2F2A00307006031D322A342ADA03C0
:04046600062A08005A
:06046A00FB15FF30080045
:10047000710DF80DF90D7408F8027508031C750F5D
:10048000F902F00DF10D0F30FC00710DF80DF90DB2
:100490007408701C512AF8027508031C750FF902C4
:1004A000562AF80775080318750FF907F00DF10DB6
:1004B000FC0B452A7018622A7408F807750803189F
:0804C000750FF90700000800A8
:1004C80083120313FB0173080319A12A7208FA00A7
:1004D800F2178E30F302F31FA42AF309F30A083047
:1004E8007302031C872AF300F10D7208F100F20170
:1004F80008307302031C872AF300F10DF101730819
:10050800031D03108F2A730803198F2A0310F20C96
:10051800F10CF30B8A2A7B1B711C992A031C992A5C
:10052800F10A0319F20AF21BB02AFA1FB32AF209D8
:10053800F109F10A0319F20AB32AF201F101B32A07
:100548007B14FB1FB62AF201FA1FB62AFF30F2000D
:10055800F100FA0DF20CB62A0130FC00B82A00307E
:10056800FC00B82AFF30FC00FC080319BC2AD12182
:0A0578007108F0007208F10008009D
:10058200831203137408003A031DD02A7508003A37
:10059200031DD02AFF30F0007F30F100292B831297
:1005A2000313FD01F901F801710870040319003405
:1005B20071087506FA00FA1BFD09FB01F51FE62A10
:1005C200F409F509F40A0319F50AF11FED2AF009F5
:1005D200F109F00A0319F10A71087504FA00FA1B0D
:1005E200022B38227B18152BFD1F0034F009F1096C
:1005F200F00A0319F10AF809F909F80A0319F90AC4
:100602000034F51F112BF11B0D2B7108F900700836
:10061200F800F101F001F52AF101F001F00A0034CD
:10062200F109F009FB0AF22AF80A0319F90A740817
:100632007802031DF52A75087902031DF52AF901CE
:10064200F801F00A0319F10AF11FF52A0000FF343C
:0206520008009E
:1006540083160313D301D4014E08D5004F08D600E6
:1006640080304F06F00080307002031D3B2B0030B9
:100674004E020318492B0130D3000030D4004E0839
:10068400003CD5004F08031C013ED601D602550894
:10069400D7005608D8005008D900F3210630D100FD
:1006A4000030D2005208003C031D5A2B5108003C74
:1006B4000318752B51085007F20001305102F00065
:1006C4000030031C013E5202F10070085007840000
:1006D4000008F00072088400700880000130D10224
:1006E400031CD203542B500884002030800053088C
:1006F40054040319932BD101D201510850078400EB
:100704000008203A031D8A2BD10A0319D20A7F2B31
:100714000130D102031CD2035108500784002D304C
:040724008000080049
:1007280083120313FB017308031D77080319EB2BCE
:1007380072087606FA007708F3077E30031CA82BA8
:10074800F3020318EE2BAB2BF302031CF12B7208F8
:10075800F8007108FC007008FD00F817F617031080
:10076800F201F101F0011830A0007D1CC52B7408BE
:10077800F00775080318750FF10776080318760F48
:10078800F207F20CF10CF00CF80CFC0CFD0C031049
:10079800A00BB92BF21BD52BF80DF00DF10DF20DB6
:1007A800F3037B1B701CE72BF81FE72BF00A0319D8
:1007B800F10A0319F20A031DE72BF20CF10CF00CF5
:1007C800F30A0319EE2BFA1FF2130030F32B013052
:1007D8009421F32B0230E721F32B04308821000009
:0207E800080007
:1007EA0083160313CF01D0014E08F2004E08F3001E
:1007FA00720884000008203A031D082C4F08500490
:10080A00031D082C152C0130CF000030D0007208CF
:10081A0084000008F0007308840070088000F30A5E
:10082A007208F100F20A710884000008003A031DF8
:08083A00FD2B4E08F000080040
:10084200332C803083160313CE00462CC030CE00EA
:10085200462C9430CE00462CD430CE00462C80302C
:10086200CE00462C831603134E08013A0319222C9C
:100872004E08023A0319272C4E08033A03192A2C70
:100882004E08043A03192D2C302C4F03F0004E0869
:10089200F0077008CE007008DC001021EF108316FC
:1008A200D10151085007840000080319612C510836
:1008B200500784000008D700DE218316D10A522C8B
:0608C2008312EF14080090
:1008C8008316031388110811081288120813881355
:1008D8008312881108118813081388120812FC2043
:1008E800FC20FC20881608168815F9208811FC20A1
:1008F8008815F9208811FC208815F9208811FC201A
:1009080008128815F9208811FC208815F92088110B
:10091800881288178815F9208811FC208813081672
:100928008815F920881108128815F9208811FC20EB
:100938008815F920881108168815F9208811FC20D7
:1009480008128815F92088118817081788160816BC
:0C0958008815F9208811FC20EF1408001D
:1009640083120313FB01FA01F9018030F800F10C42
:10097400F00C031CC62C7408F90775080318750FCE
:10098400FA070318FB0A0310F01FCE2C7408FA07A9
:1009940075080318750FFB07FB0CFA0CF90CF80C1F
:1009A400031CB92C7B08F3007A08F2007908F100E3
:0609B4007808F0000800C5
:1009BA00831203137008F8007108F000F101F201C4
:1009CA00F301FB01FC019630F300FA01F01FF32C4E
:1009DA00F809F009F80A0319F00AFA177008F10081
:0C09EA007808F000F801F201A2210800DA
:1009F600831203137408003A031D162D7508003A76
:100A0600031D162D7608003A031D162D7708003AA9
:100A1600031D162DFF30F000FF30F1007F30F2008D
:100A2600FF30F300B12D8312031377080319A52DA8
:100A360073080319A82D720876068039FA00F21792
:100A4600F617A0017208F8007108FC007008FD0096
:100A56007408FD027508031C750FFC027608031C5A
:100A6600760FF802F801FC01FD01031C412D03106D
:100A7600F20CF10CF00CF80C0130A0007708F30230
:100A8600031C4B2D7E302007F3070318AB2D502D8A
:100A96007E302007F307031CAE2D1830FA07FD0D34
:100AA600FC0DF80DF00DF10DF20DA00D7408F0021D
:100AB6007508031C750FF1027608031C760FF20207
:100AC600760DA004201C692D7D14742D7408F00782
:100AD60075080318750FF10776080318760AF207EA
:100AE6007D10FA031F307A05031D522D7B1B7D1CDA
:100AF6009B2D0310F00DF10DF20DA00D7408F00200
:100B06007508031C750FF1027608031C760FF202B6
:100B1600760D20040139FD070318FC0A0319F80AAB
:100B2600031D9B2DF80CFC0CFD0CF30A0319AB2DD1
:100B3600FA1FF8137808F2007C08F1007D08F0002F
:100B46000030B02D01303522B02D02309421B02D69
:0E0B56000430E721B02D08308821000008008F
:100B6400831203137008F8007108F000F101F20118
:100B7400F301FB01FC019630F300FA017008F10067
:0C0B84007808F000F801F201A22108003E
:100B900083120313FA017308031D7A147708031DE7
:100BA000FA147A080319142E033A0319DF2D7A1860
:100BB000DC2DF61F122E102EF21F102E122E720890
:100BC0008039FA00F21376088039F6137A06031991
:100BD000ED2D7A080319102E122E770873020319CF
:100BE000F42D031C082E0C2E760872020319FB2D1F
:100BF000031C082E0C2E750871020319022E031C0B
:100C0000082E0C2E740870020319142E03180C2ED3
:100C1000FA080319122E102EFA080319102E122E9C
:100C2000031408000310080003140315080008004B
:100C30009B218A110A128000840AB00A0319B10AA2
:080C4000F003031D182E08004B
:100C4800831603134E08F200720884000008031983
:100C58002F2EF20A282E7208F100F20A4F08F0002F
:100C6800CF0A700884000008F0007108840070083A
:100C780080007108840000080319432E2F2E4E08A7
:040C8800F000080070
:100D20002F3084003E3083120313F00046308316C8
:100D3000B0000630B1001826A03084000A30F00060
:100D400084308316B0000630B10018266D30840060
:100D50000230F0008E308316B0000630B100182645
:020D6000080089
:101000008A1190268A158A1164248A150130831664
:10101000DC008A1110218A150C308316DC008A113D
:1010200010218A15831687018312071080309F00D4
:101030008E3083169F0083121F140C1383160C1717
:10104000033086008B100B16011781128115383082
:10105000831281000B118B1601308316CE000130F4
:10106000CF002F30D0008A1121248A150230831638
:10107000CE000130CF003D30D0008A1121248A15E6
:101080000430FB000C30FC003330FD00FD0B462823
:10109000FC0B4628FB0B462800000000013083169D
:1010A000DC008A1110218A150B178B17861C5A2811
:1010B0006F145B286F105A08033C031D6128590800
:1010C000E83C03187229D901DA0101308316CE00F9
:1010D0000130CF004830D0008A1121248A156F1CBE
:1010E000F22883162A08F0002B08F1002C08F200E1
:1010F0002D08F3008A1164228A1570088316AE0049
:101100007108AF002A08F0002B08F1002C08F2004B
:101110002D08F3000030F4000030F5004830F600F0
:101120008530F7008A1194238A158A1164228A1562
:1011300070088316C2007108C3006430F4000030E8
:10114000F5008A11C1228A157808F0007908F100AB
:1011500070088316C2007108C3000130CE00013050
:10116000CF00A030D0008A1121248A1583162E08C2
:10117000CE002F08CF00C430D0008A112A238A1550
:10118000C430CE008A11F5238A15C430CE006D30EC
:10119000CF008A1124268A154208CE004308CF00CA
:1011A000BA30D0008A112A238A15BA30CE008A11AB
:1011B000F5238A15C430CE00BA30CF008A11242618
:1011C0008A15C430CE005B30CF008A1124268A15E0
:1011D0000130CE000A30CF00C430D0008A11212463
:1011E0008A15722983163208F0003308F10034089A
:1011F000F2003508F3008A1164228A1570088316FC
:10120000B8007108B9003208F0003308F100340862
:10121000F2003508F3000030F4000030F5004830EB
:10122000F6008530F7008A1194238A158A1164220A
:101230008A1570088316B6007108B7006430F40090
:101240000030F5008A11C1228A157808F00079086B
:10125000F10070088316B6007108B7000130CE00A7
:101260000130CF006430D0008A1121248A15831602
:101270003808CE003908CF00C430D0008A112A23A4
:101280008A15C430CE008A11F5238A15C430CE00E9
:101290006B30CF008A1124268A153608CE00370815
:1012A000CF00BA30D0008A112A238A15BA30CE0076
:1012B0008A11F5238A15C430CE00BA30CF008A11C6
:1012C00024268A15C430CE006030CF008A1124262F
:1012D0008A150130CE000930CF00C430D0008A1109
:0812E00021248A155628732908
:100C8C004434653476343A34203473346B34613400
:0C0C9C006C34653473346D3473340034F0
:100CA800403467346D34613469346C342E346334C1
:060CB8006F346D340034BE
:100CBE002034203420342034203420342034203486
:100CCE002034203420342034203420342034203476
:020CDE000034E0
:040CE00000340034A8
:060CE400203456340034F8
:040CEA00003400349E
:080CEE00203448347A3400344C
:0E0CF60046347234653471343A34203400349C
:040D04002E34003455
:100D080056346F346C3474346134673465343A342F
:040D1800203400344F
:040D1C002E3400343D
:02400E004A2F37
:00000001FF
