:02000000A9282D
:10000800FF00030E8301E3000A08E4008A010408E4
:10001800A0008C1C592800302606031D1528003026
:100028002506031D4128AB0A0319AC0A5F08F00036
:10003800F00D70107008473E84000008F100840A33
:100048000008F2002C087206031D2C2871082B06E4
:10005800031D4028DF0A5F080C3A031D3628DF011C
:10006800AB01AC015F082F3E8400000887005F08E1
:100078003B3E8400000888005828A50A0319A60AF0
:100088002E082602031D4A282D082502031C58287D
:10009800A501A6015F082F3E8400000887005F08BD
:1000A8003B3E8400000888008C100B1C8C288316AB
:1000B8008C108312061E69280130A5000030A600A6
:1000C80027088700210888008928861E742801309F
:1000D800A5000030A6002808870022088800892883
:1000E800061F7F280130A5000030A60029088700D8
:1000F800230888008928861F89280130A500003038
:10010800A6002A088700240888000B1083168C1480
:1001180083122008840064088A00630E8300FF0E9F
:040128007F0E09003D
:0E012C008312031361088A0060088200080035
:10013A0096208A110A128000840AE00A0319E10A49
:08014A00F003031D9D280800CD
:100152002221831203138601F03083168600870161
:10016200880101308312DF005F082F3E84000008FF
:1001720087005F083B3E8400000888008B170B173E
:100182000B108B150630FB001330FC00AD30FD0068
:10019200FD0BC928FC0BC928FB0BC9280000000075
:1001A2003F3092009101FF308316920083128C102F
:0C01B20083168C1483126210DD28DE28F6
:10024400213084003E3083120313F000E430E000D8
:080254000030E1009D200800CC
:0801C800093409340834033442
:0401D00000340034C3
:0801D40021340C34643424349E
:0401DC0000340034B7
:0401E0009034013422
:1001E4002434243424346434A43424340C341434B3
:0801F4002434213422342434A8
:1001FC000334053409340834083409340934093417
:08020C000934093409340934F6
:10021400F4340134BC340234E8340334DC340534BB
:10022400A4340634D0340734C43409348C340A3446
:10023400B8340B34AC340D3474340E34A0340F346D
:02400E004A2F37
:00000001FF
