:02000000E32CEF
:10000800FF00030E8301EE000A08EB008A01700866
:10001800A1000B1D4B2805308100EC0A0319ED0ADD
:1000280000306D06031D1A287D306C06031D1E283E
:10003800E011601500306D02031D2428FA306C02AF
:10004800031C4A28EC01ED01E0156015E50A0319C7
:10005800E60A80306606F00080307002031D3628FC
:100068003C306502031C4A28E90A0319EA0AE5013B
:10007800E60180306A06F00080307002031D4628D1
:1000880064306902031C4A28E901EA010B110B1CC0
:100098006028861F5F280130E00660185F28EC01A1
:1000A800ED0105308100E501E601E901EA01E7011A
:1000B800E801E301E4010B102108F0006B088A0055
:0A00C8006E0E8300FF0E7F0E09008C
:0E00D200213083120313FD00FD0B6D28080082
:1000E0000F3083120313FC004730FD00FD0B762810
:0A00F000FC0B762800000000080059
:0600FA00000000000800F8
:1001000083160313C01B8728831288138928831240
:1001100088178316401B8F28831208139128831297
:1001200008178316C01A97288312881299288312F9
:1001300088168316401A9F2883120812A12883125A
:100140000816E018A5280815A628081188157D208E
:1001500088118316C019AF2883128813B12883121F
:10016000881783164019B72883120813B9288312F9
:1001700008178316C018BF2883128812C12883125B
:10018000881683164018C72883120812C9288312BC
:100190000816E018CD280815CE28081188157D20EE
:0E01A0008811E01CD5287020D62869200800A0
:0801AE00FA1FF21300300800F3
:1001B6007B15FB1FE5280130F300F201F101F00188
:0801C600FA0DF20CFF300800F5
:1001CE0083120313F801F9011030FC00710DF80DC4
:1001DE00F90D7408F8027508031C750FF90203185F
:1001EE00FF287408F80775080318750FF907031030
:0A01FE00F00DF10DFC0BED280800D8
:0E020800F201F101F001F801F30100300800ED
:06021600FB15FF3008009B
:10021C00A0017208031D23297108F2007008F10077
:10022C00F001A0157208031D23297108F200F101D9
:10023C00A01120167208031931292008F302031D9E
:10024C00031C35290310F21B3929F00DF10DF20DA9
:10025C00F30B292935290130FC0004213C290230FB
:0E026C00FC00DB203C290430FC00D7200800F9
:0E027A008312031362088A00610882000800E4
:100288007B14FB1F4F29F201FA1FFF30F200F10027
:0A029800F000FA0DF20CFF30080030
:1002A20083160313BE0105303E0203185F293E0880
:1002B2003D07840020308000BE0A54293E083D07D5
:1002C20084008001BE033E083D07BF000A30F400EF
:1002D200F5013B08F0003C08F100E7207808F00047
:1002E2007908F1003030F00783163F088400700867
:1002F20080000A30F400F5013B08F0003C08F100F0
:10030200E72070088316BB007108BC00003071063C
:10031200031D8D2900307006031D90299229BE030A
:040322006429080042
:1003260083120313E01083163B08C0008020E014FC
:020336000800BD
:10033800FB14FB1FA629FF30F300F200F100F000C8
:08034800FA0DF20CFF30080071
:1003500083120313FB017308031D77080319FF2998
:1003600072087606FA007708F3077E30031CBC2972
:10037000F3020318022ABF29F302031C052A72089C
:10038000F8007108FC007008FD00F817F61703105C
:10039000F201F101F0011830A0007D1CD929740888
:1003A000F00775080318750FF10776080318760F24
:1003B000F207F20CF10CF00CF80CFC0CFD0C031025
:1003C000A00BCD29F21BE929F80DF00DF10DF20D6E
:1003D000F3037B1B701CFB29F81FFB29F00A031990
:1003E000F10A0319F20A031DFB29F20CF10CF00CBF
:1003F000F30A0319022AFA1FF2130030072A013008
:100400000421072A02309C21072A0430DB20000047
:020410000800E2
:1004120083120313FB0173080319462A7208FA00B8
:10042200F2178E30F302F31F492AF309F30A083058
:100432007302031C2C2AF300F10D7208F100F20181
:1004420008307302031C2C2AF300F10DF10173082A
:10045200031D0310342A73080319342A0310F20C03
:10046200F10CF30B2F2A7B1B711C3E2A031C3E2A24
:10047200F10A0319F20AF21B552AFA1F582AF20945
:10048200F109F10A0319F20A582AF201F101582A74
:100492007B14FB1F5B2AF201FA1F5B2AFF30F2007A
:1004A200F100FA0DF20C5B2A0130FC005D2A0030EB
:1004B200FC005D2AFF30FC00FC080319612A44217C
:0A04C2007108F0007208F100080054
:1004CC00831203137408003A031D812A7508003A3D
:1004DC00031D812A7608003A031D812A7708003A09
:1004EC00031D812AFF30F000FF30F1007F30F20055
:1004FC00FF30F3001C2B8312031377080319102B06
:10050C0073080319132B720876068039FA00F21758
:10051C00F617A0017208F8007108FC007008FD00C5
:10052C007408FD027508031C750FFC027608031C89
:10053C00760FF802F801FC01FD01031CAC2A031034
:10054C00F20CF10CF00CF80C0130A0007708F3025F
:10055C00031CB62A7E302007F3070318162BBB2A80
:10056C007E302007F307031C192B1830FA07FD0DFA
:10057C00FC0DF80DF00DF10DF20DA00D7408F0024C
:10058C007508031C750FF1027608031C760FF20236
:10059C00760DA004201CD42A7D14DF2A7408F007E1
:1005AC0075080318750FF10776080318760AF20719
:1005BC007D10FA031F307A05031DBD2A7B1B7D1CA1
:1005CC00062B0310F00DF10DF20DA00D7408F002C6
:1005DC007508031C750FF1027608031C760FF202E6
:1005EC00760D20040139FD070318FC0A0319F80ADB
:1005FC00031D062BF80CFC0CFD0CF30A0319162B2F
:10060C00FA1FF8137808F2007C08F1007D08F0005E
:10061C0000301B2B01300B211B2B023004211B2B18
:0E062C0004309C211B2B0830DB20000008004E
:10063A0083160313B5010630350203182B2B350830
:10064A003407840030308000B50A202B350834077F
:10065A008400800100303306031D352B003032063A
:10066A00031D382B912B8312EF018030831633063A
:10067A00F00080307002031D442B00303202031850
:10068A00532B01308312EF0083163208003CB60068
:10069A003308031C013EB701B702572B3208B600D4
:1006AA003308B7000530B50000303706031D5F2B4D
:1006BA00003036060319882B35083407B8000A308B
:1006CA00F4000030F5003608F0003708F100E720A2
:1006DA007808F0007908F1003030F00783163808FE
:1006EA00840070088000B5030A30F4000030F50079
:1006FA003608F0003708F100E72070088316B600C4
:10070A007108B700592B83126F080319912B8316AE
:0A071A00340884002D308000080030
:1007240083120313FB01FA01F9018030F800F10C84
:10073400F00C031CA62B7408F90775080318750F31
:10074400FA070318FB0A0310F01FAE2B7408FA070C
:1007540075080318750FFB07FB0CFA0CF90CF80C61
:10076400031C992B7B08F3007A08F2007908F10046
:060774007808F000080007
:10077A003D218A110A128000840AE10A0319E20A59
:08078A00F003031DBD2B080064
:1007920083160313B701B8013208B9003308BA004F
:1007A20080303306F00080307002031DDA2B0030F7
:1007B20032020318E82B0130B7000030B8003208CB
:1007C200003CB9003308031C013EBA01BA023908E1
:1007D200BB003A08BC003408BD0051210630B50008
:1007E2000030B6003608003C031DF92B3508003CEA
:1007F2000318142C35083407F20001303502F000DA
:100802000030031C013E3602F100700834078400F8
:100812000008F00072088400700880000130B50200
:10082200031CB603F32B3408840020308000370801
:1008320038040319322CB501B60135083407840097
:100842000008203A031D292CB50A0319B60A1E2CEA
:100852000130B502031CB6033508340784002D307D
:04086200800008000A
:1008660083160313881108110812881208138813B7
:100876008312881108118813081388120812702031
:10088600702070208816081688157D208811702023
:1008960088157D208811702088157D20881170208C
:1008A600081288157D208811702088157D208811F2
:1008B6008812881788157D208811702088130816DD
:1008C60088157D208811081288157D2088117020D2
:1008D60088157D208811081688157D2088117020BE
:1008E600081288157D20881188170817881608169B
:0C08F60088157D2088117020E014080097
:10090200831203137008F8007108F000F101F2017C
:10091200F301FB01FC019630F300FA01F01F972C62
:10092200F809F009F80A0319F00AFA177008F10039
:0C0932007808F000F801F2010E21080026
:10093E00B12C803083160313B200C42CC030B20029
:10094E00C42C9430B200C42CD430B200C42C8030ED
:10095E00B200C42C831603133208013A0319A02CDB
:10096E003208023A0319A52C3208033A0319A82CAF
:10097E003208043A0319AB2CAE2C3303F0003208C4
:10098E00F0077008B2007008C0008020E010EF0180
:10099E006F0883163407840000080319E02C8312B5
:1009AE006F088316340784000008BB009321EF0AFA
:0809BE00CF2C8312E0140800A5
:1009C6002A26003083160313AE000030AF00003035
:1009D600B0007F30B10083126014332401308316D7
:1009E600C00080200C308316C00080208030831623
:1009F60086008B170B170B108B15C4308100053042
:100A0600831281000B118B1601308316B200013060
:100A1600B3002230B4009F2402308316B2000130A6
:100A2600B3003030B4009F240430FB000C30FC00CF
:100A36003330FD00FD0B1D2DFC0B1D2DFB0B1D2D5D
:100A46000000000001308316C000802001308316AC
:100A5600B2000130B3004F30B4009F24601DE52D75
:100A660060116018D52D69088316B20083126A08D2
:100A76008316B300A030B4001D2383120313690844
:100A8600F0006A08F100812483162E08F4002F086E
:100A9600F5003008F6003108F700A8210922700891
:100AA600E7007108E80083162408A7002508A800B7
:100AB6008312E01D622D3A308316A900652D831638
:100AC6002030A900831265088316B20083126608D7
:100AD6008316B300A030B4001D23831203136508E8
:100AE600F0006608F1000A30F4000030F5009223A9
:100AF600812483162E08F4002F08F5003008F6002E
:100B06003108F700A8210030F4000030F50040302D
:100B1600F6008130F700662209227008E3007108AA
:100B2600E40083162408AA002508AB00AC010130B6
:100B3600B2000130B300A730B4009F2467088316C3
:100B4600B200831268088316B300A030B400C9232C
:100B56002408A7002508A8002C30A90083126308E2
:100B66008316B200831264088316B300A030B40063
:100B76001D23831603132408AA002508AB0024307E
:100B8600AC00AD010130B2000B30B300A730B400A9
:100B96009F2402308316B2000430B3003B30B40009
:100BA6009F24E52D02308316B2000430B300453091
:100BB600B4009F2401308316B2000330B3004330E3
:080BC600B4009F24312DE62D3F
:100C5400223084003E3083120313F000EC30E100B4
:080C64000530E200BD23080089
:100BD8004434653476343A34203473346B346134B5
:0C0BE8006C34653473346D3473340034A5
:100BF400403467346D34613469346C342E34633476
:060C04006F346D34003472
:100C0A00443472346934763469346E346734003467
:040C1A003A34003434
:100C1E0020342034533474346F3470342034203400
:040C2E00203400343A
:100C3200303430343A3430343034203420342034B8
:100C420020342034203430342C34303430342434C2
:020C520000346C
:02400E004A2F37
:00000001FF
