:02000000C62810
:10000800FF00030E8301D9000A08D8008A0170088E
:10001800A0000408A1008B1C78284530DA00B02025
:100028000B30FB002630FC005D30FD00FD0B1A286C
:10003800FC0B1A28FB0B1A28000000004730DA00D6
:10004800B0200B30FB002630FC005D30FD00FD0BBE
:100058002B28FC0B2B28FB0B2B2800000000223040
:10006800DA00B0200B30FB002630FC005D30FD00CC
:10007800FD0B3C28FC0B3C28FB0B3C280000000037
:100088002D30DA00B0200B30FB002630FC005D304C
:10009800FD00FD0B4D28FC0B4D28FB0B4D280000E7
:1000A8000000A030DA00B0200B30FB002630FC0046
:1000B8005D30FD00FD0B5E28FC0B5E28FB0B5E2807
:1000C800000000001A30DD0083200B30FB002630D2
:1000D800FC005D30FD00FD0B6F28FC0B6F28FB0B4F
:1000E8006F28000000008B102008F0002108840011
:0E00F80058088A00590E8300FF0E7F0E090083
:1001060083160313981889280000832883125D0834
:040116009900080044
:0E011A008312031357088A005608820008005B
:100128008316031398169030831298008316871746
:10013800071383128C1EA3281A08F0009D280800B4
:100148008D208A110A128000840AD60A0319D70A58
:08015800F003031DA4280800B8
:1001600083120313DC015A0884000008DB005B08DB
:10017000003A0319C5285B08DD008320DC0A5C080F
:0C0180005A0784000008DB00B7280800C4
:10018C006221831603138701831207100130831633
:10019C0086008B100B1601170B178B170330990069
:0801AC0018159420D828D92869
:1002C40022308400233083120313F0002D30D60033
:1002D4000130D700A420A03084004E30F000DF307D
:1002E400D6000030D700A420453084001130F0003F
:0C02F4005030D6000130D700A4200800D4
:1001BE00543465347334743420344D343534393416
:1001CE003034203453344D34533420346B3469344A
:1001DE00743420346D346F34643475346C34653457
:1001EE0020347534733469346E34673420344134BA
:1001FE005434203463346F346D346D3461346E3462
:10020E00643473342034663472346F346D34203475
:10021E00413472346434753469346E346F3420343E
:10022E006D34653467346134203462346F34613434
:10023E0072346434733420342D3420346E34693483
:0C024E0071345F3472346F340D340034AE
:10025A00413454342B3443344D34473446343D34DA
:06026A0031340D340034B4
:10027000413454342B3443344D34473453343D34B7
:1002800022342B343434303437347834783478347E
:100290007834783478347834783422340D34003437
:0402A0000D340034E5
:1002A400413454342B3443345334433453343D3481
:0E02B4002234473453344D3422340D34003498
:02400E004A2F37
:00000001FF
