:060000008A150A16002813
:100006000F3083120313FC004730FD00FD0B092857
:0A001600FC0B0928000000000800A0
:0E002000213083120313FD00FD0B142808008D
:06002E00000000000800C4
:08003400FA1FF213003008006E
:10003C00FB14FB1F2828FF30F300F200F100F00046
:08004C00FA0DF20CFF30080070
:0E005400F201F101F001F801F30100300800A3
:100062007B15FB1F3B280130F300F201F101F00187
:08007200FA0DF20CFF3008004A
:10007A00A1017208031D52287108F2007008F100EC
:10008A00F001A1157208031D52287108F200F1014E
:10009A00A11121167208031960282108F302031D11
:1000AA00031C64280310F21B6828F00DF10DF20DF1
:1000BA00F30B582864280130FC002A206B280230F0
:0E00CA00FC0031206B280430FC001A200800D6
:1000D80083160313EF1B73288312081075288312E5
:1000E800081483166F1B7B28831288107D288312BF
:1000F80088148316EF1A832883120811852883121F
:10010800081583166F1A8B28831288118D2883127D
:1001180088156718912888169228881208161720BB
:1001280008128316EF199B28831208109D28831242
:10013800081483166F19A32883128810A528831220
:1001480088148316EF18AB2883120811AD28831280
:10015800081583166F18B32883128811B5288312DF
:1001680088156718B9288816BA288812081617201B
:0E0178000812671CC1280320C22810200800AE
:100186007C18F928FC18CA287C191829C328A1014B
:100196007208031DEA287108F2007008F100780859
:1001A600F000F801A1157208031DEA287108F20093
:1001B6007008F100F001A11121167208031DEA284A
:1001C6007108F200F101A115720803190C29210822
:1001D600F302031D031C10290310F21BF928F80D66
:1001E600F00DF10DF20DF30BF02810297B1B701C9E
:1001F6001429F81F1429F00A0319F10A0319F20A3F
:10020600031D1429F20CF10CF00CF30A031918293A
:1002160014290130FC002A201B290230FC00312061
:100226001B290430FC001A201B290830FC001E2064
:0402360000000800BC
:10023A007B14FB1F2829F201FA1FFF30F200F1009C
:0A024A00F000FA0DF20CFF3008007E
:100254008312031372087606A100F801F9017308EA
:100264007702031C4D297708FD007308F7007D0809
:10027400F3007608FD007208F6007D08F2007508A8
:10028400FD007108F5007D08F1007408FD00700898
:10029400F4007D08F00077080319C6297208FA00F3
:1002A400F217F61777087302F7000319802908304C
:1002B4007702031C7629F7007408F9007508F40026
:1002C4007608F500F60108307702031C7629F7005A
:1002D4007408F9007508F400F50108307702031C6E
:1002E40076297A08F200C6297708031980290310B1
:1002F400F60CF50CF40CF90CF70B7929A11F8D29D8
:10030400F909F409F509F609F90A0319F40A0319B4
:10031400F50A0319F60A7908F80774080318740F24
:10032400F00775080318750FF10776080318760FA0
:10033400F207A11BA629031CB629F20CF10CF00C40
:10034400F80CF30FB629C2290318BA29F809F009E1
:10035400F109F209F80A0319F00A0319F10A031959
:10036400F20A8030FA06BE290130FC00C320C829F5
:100374000230FC00C320C8290430FC003D20C829F9
:100384000830FC001E20C8290030FC0000000800D2
:0E0394008312031352088A00510882000800E9
:1003A20083120313671083166E08EF006C20671424
:0203B200080041
:1003B400FB09FA09F909F809F80A0319F90A0319F2
:0803C400FA0A0319FB0A080004
:1003CC007408F8027508031C750FF9027608031CF3
:1003DC00760FFA027708031C770FFB02F30D073038
:1003EC00FC00730DF80DF90DFA0DFB0D7408731C60
:1003FC000D2AF8027508031C750FF9027608031C08
:10040C00760FFA027708031C770FFB021A2AF807FB
:10041C0075080318750FF90776080318760FFA0795
:10042C0077080318770FFB07F30DFC0BF729720DF8
:10043C00F80DF90DFA0DFB0D7408731C332AF80234
:10044C007508031C750FF9027608031C760FFA0267
:10045C007708031C770FFB02402AF807750803186E
:10046C00750FF90776080318760FFA077708031843
:10047C00770FFB07F20D0730FC00720DF80DF90D2C
:10048C00FA0DFB0D7408721C592AF8027508031C2E
:10049C00750FF9027608031C760FFA027708031C15
:1004AC00770FFB02662AF80775080318750FF90712
:1004BC0076080318760FFA0777080318770FFB07EF
:1004CC00F20DFC0B432A710DF80DF90DFA0DFB0D15
:1004DC007408721C7F2AF8027508031C750FF90248
:1004EC007608031C760FFA027708031C770FFB02C1
:1004FC008C2AF80775080318750FF9077608031886
:10050C00760FFA0777080318770FFB07F10D073002
:10051C00FC00710DF80DF90DFA0DFB0D7408711C32
:10052C00A52AF8027508031C750FF9027608031C3E
:10053C00760FFA027708031C770FFB02B22AF80732
:10054C0075080318750FF90776080318760FFA0764
:10055C0077080318770FFB07F10DFC0B8F2A700D32
:10056C00F80DF90DFA0DFB0D7408711CCB2AF8026D
:10057C007508031C750FF9027608031C760FFA0236
:10058C007708031C770FFB02D82AF80775080318A5
:10059C00750FF90776080318760FFA077708031812
:1005AC00770FFB07F00D0730FC00700DF80DF90DFF
:1005BC00FA0DFB0D7408701CF12AF8027508031C67
:1005CC00750FF9027608031C760FFA027708031CE4
:1005DC00770FFB02FE2AF80775080318750FF90749
:1005EC0076080318760FFA0777080318770FFB07BE
:1005FC00F00DFC0BDB2A7018112B7408F80775082A
:10060C000318750FF90776080318760FFA077708A1
:08061C000318770FFB0708002B
:10062400831203137408003A031D2D2B7508003A36
:10063400031D2D2B7608003A031D2D2B7708003A55
:10064400031D2D2BFF30F000FF30F100FF30F200CE
:100654007F30F300C62B83120313FC01F71BFC0A43
:10066400FD01FB01FA01F901F80173087204710438
:1006740070040319C12B73087706A000A01BFD09A1
:10068400F71F4F2BF409F509F609F709F40A0319C2
:10069400F50A0319F60A0319F70AF31F5C2BF0098C
:1006A400F109F209F309F00A0319F10A0319F20A2C
:1006B4000319F30A73087704A000A01B7D2BE6211D
:1006C400FC1B9A2BFD1FC12BF009F109F209F30958
:1006D400F00A0319F10A0319F20A0319F30AF809D3
:1006E400F909FA09FB09F80A0319F90A0319FA0ABC
:1006F4000319FB0AC12BF71F942BF31B8E2B7308D2
:10070400FB007208FA007108F9007008F800F301A0
:10071400F201F101F001642BF301F201F101F001A6
:10072400F00A0034F309F209F109F009FC17612B0E
:10073400F80A0319F90A0319FA0A0319FB0A7408D7
:100744007802031D642B75087902031D642B760857
:100754007A02031D642B77087B02031D642BFB01C3
:10076400FA01F901F801F00A0319F10A0319F20A6E
:100774000319F30AF31F642BA0012016FF34A00110
:0A0784007C1CC52BDA21003E0800A2
:10078E00710DF80DF90D7408F8027508031C750F3C
:10079E00F902F00DF10D0F30FC00710DF80DF90D91
:1007AE007408701CE02BF8027508031C750FF90213
:1007BE00E52BF80775080318750FF907F00DF10D05
:1007CE00FC0BD42B7018F12B7408F807750803185E
:0807DE00750FF9070000080087
:1007E60083120313FA017308031D7A147708031D95
:1007F600FA147A0803193F2C033A03190A2C7A18BB
:10080600072CF61F3D2C3B2CF21F3B2C3D2C72086F
:100816008039FA00F21376088039F6137A0603193E
:10082600182C7A0803193B2C3D2C77087302031900
:100836001F2C031C332C372C760872020319262C26
:10084600031C332C372C7508710203192D2C031C3D
:10085600332C372C7408700203193F2C0318372CDD
:10086600FA0803193D2C3B2CFA0803193B2C3D2CA6
:1008760003140800031008000314031508000800F9
:1008860083120313FB01FC01F80173080319BB2C47
:100896007208FA00F2179E30F302F31FAB2CF3092D
:1008A600F30A08307302031C802CF300F80D70085D
:1008B600F8007108F0007208F100F20108307302C6
:1008C600031C802CF300F80D7008F8007108F00086
:1008D600F10108307302031C802CF300F80D700838
:1008E600F800F00108307302031C802CF300F80DA9
:1008F600F8017308031D03108A2C730803198A2C48
:100906000310F20CF10CF00CF80CF30B832C7B1B90
:10091600781C982C031C982CF80A0319F00A031962
:10092600F10A0319F20AF21BB82CFA1FBB2CF209C2
:10093600F109F009F809F80A0319F00A0319F10A8E
:100946000319F20ABB2CF201F101F001F801BB2CEC
:100956007B14FB1FBE2CF201FA1FBE2CF200F10025
:10096600F000F800FA0DF20CBE2C0130FC00C02C91
:100976000030FC00C02CFF30FC00FC080319C42C1E
:100986001D217208F3007108F2007008F100780862
:04099600F000080065
:10099A0083120313F3017308A03EF200730883164F
:1009AA006A07F0006B080318013EF1007008831211
:1009BA00D1007108D200CA218A110A12F000720805
:1009CA008400700880007208840000080319EF2C64
:0A09DA00F30AD02CA030F000080052
:1009E400042D803083160313EA00172DC030EA006B
:1009F400172D9430EA00172DD430EA00172D8030DB
:100A0400EA00172D831603136A08013A0319F32C1D
:100A14006A08023A0319F82C6A08033A0319FB2CF2
:100A24006A08043A0319FE2C012D6B03F0006A08CE
:100A3400F0077008EA007008EF006C206710831656
:100A4400ED016D086C07840000080319322D6D0850
:100A54006C0784000008EE00D1218316ED0A232DD3
:060A640083126714080074
:100A6A00831203137008F8007108F0007208F1008D
:100A7A007308F200F301FB01FC019E30F300FA0156
:100A8A00F21F532DF809F009F109F209F80A0319BE
:100A9A00F00A0319F10A0319F20AFA170230FC00E4
:040AAA00C32008005D
:0C0AAE00831203138030F6062A21080092
:100ABA0083120313FB01FA01F9018030F800F10CEB
:100ACA00F00C031C712D7408F90775080318750FCB
:100ADA00FA070318FB0A0310F01F792D7408FA07A6
:100AEA0075080318750FFB07FB0CFA0CF90CF80CC8
:100AFA00031C642D7B08F3007A08F2007908F100E0
:060B0A007808F00008006D
:100B1000831203137008F8007108F000F101F2016C
:100B2000F301FB01FC019630F300FA01F01F9E2D4A
:100B3000F809F009F80A0319F00AFA177008F10029
:0C0B40007808F000F801F2013D200800E8
:100B4C0083120313FB017308031D77080319FD2D92
:100B5C0072087606FA007708F3077E30031CBA2D6C
:100B6C00F3020318002EBD2DF302031C032E720892
:100B7C00F8007108FC007008FD00F817F617031058
:100B8C00F201F101F0011830A1007D1CD72D740881
:100B9C00F00775080318750FF10776080318760F20
:100BAC00F207F20CF10CF00CF80CFC0CFD0C031021
:100BBC00A10BCB2DF21BE72DF80DF00DF10DF20D65
:100BCC00F3037B1B701CF92DF81FF92DF00A031988
:100BDC00F10A0319F20A031DF92DF20CF10CF00CB9
:100BEC00F30A0319002EFA1FF2130030052E013000
:100BFC002A20052E02301E20052E04303120000044
:020C0C000800DE
:100C0E0083120313FB0173080319442E7208FA00B2
:100C1E00F2178E30F302F31F472EF309F30A083052
:100C2E007302031C2A2EF300F10D7208F100F2017B
:100C3E0008307302031C2A2EF300F10DF101730824
:100C4E00031D0310322E73080319322E0310F20CFB
:100C5E00F10CF30B2D2E7B1B711C3C2E031C3C2E1A
:100C6E00F10A0319F20AF21B532EFA1F562EF2093D
:100C7E00F109F10A0319F20A562EF201F101562E6C
:100C8E007B14FB1F592EF201FA1F592EFF30F20072
:100C9E00F100FA0DF20C592E0130FC005B2E0030E3
:100CAE00FC005B2EFF30FC00FC0803195F2E1D219B
:0A0CBE007108F0007208F100080050
:100CC800831203132230FC00F801F901FA01FB0139
:100CD800FC0303199A2E0310FB0CFA0CF90CF80C00
:100CE800F30CF20CF10CF00C031C6C2EFC03031932
:100CF8008C2E7408F80775080318750FF90776081D
:100D08000318760FFA0777080318770FFB07702E7A
:100D18007408F80775080318750FF907760803189B
:0E0D2800760FFA0777080318770FFB0708000D
:100D3600053083160313E60080306606F000803027
:100D4600003A7002031CFA2E01306402F100F2012F
:100D5600031CF2030030E41BFF30F2070030E61BF1
:100D6600FF307206031DB92E71086606031DC12EDB
:100D76006608613E84002E308000F82E6608613ECB
:100D8600E7000A30F400F501F601F7016008F0000B
:100D96006108F1006208F2006308F3001223780884
:100DA600F0007908F1007A08F2007B08F300303091
:100DB600F007831667088400700880000A30F40084
:100DC600F501F601F7016008F0006108F10062081C
:100DD600F2006308F300122370088316E00071081E
:100DE600E1007208E2007308E300E6039F2E02307A
:0E0DF600EA00650AEB006130EC00F224080010
:100E0400831603136008EA006108EB00CD24700820
:100E14008316EC000130EA000130EB00F2240800F4
:060E2400FB15FF30080081
:100E2A00831203137408003A031D242F7508003A2D
:100E3A00031D242FFF30F0007F30F1007D2F831235
:100E4A000313FD01F901F801710870040319003454
:100E5A0071087506FA00FA1BFD09FB01F51F3A2F06
:100E6A00F409F509F40A0319F50AF11F412FF009EB
:100E7A00F109F00A0319F10A71087504FA00FA1B5C
:100E8A00562FC7237B18692FFD1F0034F009F1097B
:100E9A00F00A0319F10AF809F909F80A0319F90A13
:100EAA000034F51F652FF11B612F7108F9007008D6
:100EBA00F800F101F001492FF101F001F00A0034C4
:100ECA00F109F009FB0A462FF80A0319F90A74080E
:100EDA007802031D492F75087902031D492FF9016C
:100EEA00F801F00A0319F10AF11F492F0000FF3433
:020EFA000800EE
:100EFC00803083120313F000803083166306700277
:100F0C00031D922F6208003C031D922F6108003CC8
:100F1C00031D922F6008003C0318A72F0330FC0020
:100F2C009730FD00FD0B982FFC0B982F0000000054
:100F3C000130E002031CE102031CE202031CE30289
:040F4C007E2F0800EC
:100F5000831603178C1CAE2F0000A82F0313600804
:100F6000831203178D00831603136108831203177E
:100F70008C0083168C130C150B08F0008B13553066
:100F80008D00AA308D008C14F01BC82F8B13C92F35
:060F90008B170C11080094
:100F9600831603136008EA006108EB00CD2470088D
:100FA6008316EC000230EA000730EB00F22408005A
:100FB600831603136008EA006108EB00CD2470086D
:100FC6008316EC000230EA000130EB00F224080040
:100FD600831603134108831203178D0083168C139F
:0A0FE6000C1483120C08F000080040
:10100000831603136308F000F101F201F301FF30CE
:10101000F0050030F1057008E8007108E9007F3044
:101020007002F2000030031C013E7102F3007208EE
:10103000E8007308E90080307306F0008030700229
:10104000031D24280030720203184A28F401F50118
:10105000F601F7016008F0006108F1006208F20093
:101060006308F3008A11F3238A1501300318003056
:10107000F0007008031945280030F0000030F1003E
:101080008030F2007F30F300AB28F001F101F20173
:10109000F301AB2883166908003C031D512868083A
:1010A000183C03185C286008F0006108F100620831
:1010B000F2006308F300AB286008F0006108F1005B
:1010C0006208F2006308F3008A1143248A158A112A
:1010D00035258A1570088316E4007108E50072084A
:1010E000E6007308E7007008F4007108F500720864
:1010F000F6007308F7006008F0006108F10062086C
:10110000F2006308F3008A11F3238A1501300318F3
:101110000030F00070080319A2280030F4000030FD
:10112000F5000030F6007F30F70083166408F00009
:101130006508F1006608F2006708F3008A11572578
:101140008A15AB2883166408F0006508F10066086C
:08115000F2006708F30008003B
:10115800831203134908F0004A08F1004B08F20013
:101168004C08F3000030F4000030F5000030F600C1
:101178007E30F7008A112A218A158A1107268A15D6
:1011880070088316D4007108D5005308003A031973
:10119800AE295308F0000030F01BFF30F10054086E
:1011A800F4005508F5008A115D258A157008831624
:1011B800DE007108DF004F08F0005008F100510808
:1011C800F2005208F3000030F4000030F50000305F
:1011D800F6007E30F7008A112A218A1570088316D6
:1011E800DA007108DB007208DC007308DD005308C0
:1011F800F0000030F01BFF30F1008A1188258A15B5
:1012080070088316D6007108D7007208D8007308D2
:10121800D9005608F0005708F1005808F20059089C
:10122800F3005A08F4005B08F5005C08F6005D0856
:10123800F7008A11A6258A154908F4004A08F5001E
:101248004B08F6004C08F7008A112A218A158316E4
:101258005608F4005708F5005808F6005908F70032
:101268008A11A6258A1570088316E0007108E10026
:101278007208E2007308E300002083120313700869
:101288008316D6007108D7007208D8007308D900F1
:101298005E08F0005F08F1008A1188258A15831618
:1012A8005608F4005708F5005808F6005908F700E2
:1012B8008A11F3238A15013003180030F0007008F2
:1012C8000319AE290F308705831653085407F00019
:1012D80055080318013EF1000030D31BFF30F10719
:1012E80083125A08F4000030F41BFF30F5008A110D
:1012F80015278A157808F0007908F1007008223E51
:1013080084000008F2007208F000F00D7010F00D73
:101318007010F00D7010F00D7010700887044D08F3
:101328008316E00083124E088316E10083124F08EB
:101338008316E200831250088316E3008A117E2781
:101348008A155308D4070318D50A0030D31BFF3079
:10135800D507C92883165308F0000030F01BFF306A
:10136800F1008A1188258A1583164F08F400500861
:10137800F5005108F6005208F7008A11A6258A15CB
:101388004908F4004A08F5004B08F6004C08F70035
:101398008A112A218A157008C9007108CA007208C2
:0813A800CB007308CC00080023
:1013B00083160313D0014F08063CF100F201031C11
:1013C000F2030130CF1F0030F20780308312D31BAD
:1013D0007F30F000803072067002031DF129710821
:1013E0005302031C0C2A5308043CF100F201031CB5
:1013F000F2030130D31F0030F20780308316D01B78
:101400007F30F000803072067002031D092A7108D7
:10141000500203180C2A3F2A83164F08063CF1009D
:10142000F201031CF2030130CF1F0030F2078030BD
:101430008312D31B7F30F000803072067002031DD0
:10144000232A7108530203183E2A5308053CF10071
:10145000F201031CF2030130D31F0030F207803089
:101460008316D01B7F30F000803072067002031D9F
:101470003B2A7108500203183E2A3F2A482A831645
:101480001430EF008A116C208A158316D00ADB29EC
:02149000080052
:10149200013083160313D000D101D201D301803071
:1014A200003AF00080304F0670020318732A500889
:1014B200F0005108F1005208F2005308F3000A301C
:1014C200F400F501F601F7018A1164268A15700805
:1014D2008316D0007108D1007208D2007308D300BD
:1014E200CF03502A5008F0005108F1005208F200D0
:0614F2005308F30008009E
:1014F8000C3083160313EF008A116C208A15032D14
:1015080069308316E0001B30E1008A1102278A1532
:1015180054088316E000831255088316E1008312ED
:1015280056088316E200831257088316E300E40185
:10153800E5018A119B268A15F5308316E0000F30E5
:10154800E1008A11CB278A15672D54088316E0001D
:10155800831255088316E100831256088316E200A9
:10156800831257088316E300E401E5018A119B26DC
:101578008A15F3308316E0001730E1008A11CB2773
:101588008A15672D03308316E0001B30E1008A11AD
:1015980002278A1541088316E00083124208831641
:1015A800E100831243088316E2008312440883167D
:1015B800E3000330E400E5018A119B268A15843094
:1015C8008316E0001B30E1008A11CB278A15672DAE
:1015D80041088316E000831242088316E100831253
:1015E80043088316E200831244088316E30003309D
:1015F800E400E5018A119B268A1579308316E000FC
:101608001B30E1008A11CB278A15672D1430831609
:10161800E0001B30E1008A1102278A153D08831675
:10162800E00083123E088316E10083123F08831608
:10163800E200831240088316E3000430E400E50169
:101648008A119B268A1584308316E0001B30E1003E
:101658008A11CB278A15672D3D088316E00083126F
:101668003E088316E10083123F088316E2008312C6
:1016780040088316E3000430E400E5018A119B2644
:101688008A1579308316E0001B30E1008A11CB27D8
:101698008A15672DE2308316E0001730E1008A11C1
:1016A80002278A15F2308316E0001A30E1008A1109
:1016B800DB278A15672D47308316E0001B30E100D1
:1016C8008A11DB278A15672D58308316E0001B30F6
:1016D800E1008A1102278A1525308316E0001B30A5
:1016E800E1008A11DB278A15672D36308316E00062
:1016F8001B30E1008A11DB278A15672DD13083164C
:10170800E0001730E1008A11DB278A15672D2730A2
:101718008316E0001730E1008A11DB278A15672D50
:1017280038308316E0001730E1008A11DB278A156C
:10173800672D49308316E0001730E1008A1102272F
:101748008A15D3308316E0000F30E1008A11DB27B9
:101758008A15672DE4308316E0000F30E1008A1106
:10176800DB278A15672D16308316E0001730E10055
:101778008A1102278A1583163808E0003908E10023
:101788003A08E2003B08E300E401E5018A119B26E0
:101798008A1502308316EA000730EB003430EC007B
:1017A8008A11F2248A1554088316E000831255081A
:1017B8008316E100831256088316E2008312570845
:1017C8008316E300E4010A30E5008A119B268A1596
:1017D800672D5A308316E0001730E1008A1102277E
:1017E8008A1583163808E0003908E1003A08E20053
:1017F8003B08E300E401E5018A119B268A150230C3
:101808008316EA000730EB002F30EC008A11F2242F
:101818008A1554088316E000831255088316E100E0
:10182800831256088316E200831257088316E300D2
:10183800E4010A30E5008A119B268A15672D9E303F
:101848008316E0001730E1008A1102278A1539084B
:101858008316E00083123A088316E10083123B08DE
:101868008316E20083123C088316E300E401E501D5
:101878008A119B268A15F5308316E0000F30E100A7
:101888008A11CB278A15672D39088316E000831241
:101898003A088316E10083123B088316E20083129C
:1018A8003C088316E300E401E5018A119B268A15AA
:1018B800F3308316E0001730E1008A11CB278A1530
:1018C800672DAF308316E0001730E1008A11022738
:1018D8008A1545088316E000831246088316E1003E
:1018E800831247088316E200831248088316E30030
:1018F800E401E5018A119B268A15F5308316E0007C
:101908000F30E1008A11CB278A15672D4508831609
:10191800E000831246088316E10083124708831605
:10192800E200831248088316E300E401E5018A1106
:101938009B268A15F3308316E0001730E1008A11E0
:10194800CB278A15672DC0308316E0001730E100D9
:101958008A1102278A154D088316E00083124E0863
:101968008316E10083124F088316E20083125008A1
:101978008316E300E401E5018A119B268A15F530F8
:101988008316E0000F30E1008A11CB278A15672DF6
:101998004D088316E00083124E088316E100831277
:1019A8004F088316E200831250088316E300E4010F
:1019B800E5018A119B268A15F3308316E00017305B
:1019C800E1008A11CB278A15672D6B308316E0005A
:1019D8001730E1008A1102278A157C308316E0004F
:1019E8001730E1008A11DB278A15672D8D308316A1
:1019F800E0001730E1008A11DB278A15672D5808A7
:101A0800013A0319842A5808023A0319A92A5808DE
:101A1800033A0319C62A5808043A0319EC2A580845
:101A2800053A03190A2B5808063A0319302B5808A7
:101A3800073A03194E2B5808083A03195F2B580820
:101A4800093A0319682B58080A3A0319792B5808D8
:101A58000B3A0319822B58080C3A03198B2B580898
:101A68000D3A0319942B58080E3A03199D2B580860
:101A78000F3A0319AE2B5808103A0319B72B580818
:101A8800113A0319ED2B5808123A0319232C580858
:101A9800133A0319482C5808143A0319652C5808A6
:101AA800153A03198A2C5808163A0319A72C58080E
:101AB800173A0319CC2C5808183A0319E92C580876
:081AC800193A0319FA2C080079
:101AD000033083160313D40080305406F0008030A6
:101AE000003A7002031CAD2D53085407E00000308B
:101AF000F4000130F500F601F7014F08F00050083E
:101B0000F1005108F2005208F3008A1112238A15DD
:101B10007808F0007908F1007A08F2007B08F300F9
:101B200070088316E1008A11A8278A153430FC005A
:101B3000F130FD00FD0B9A2DFC0B9A2D00000000EA
:101B400003135008CF005108D0005208D1000030D4
:0C1B5000D21BFF30D200D4036C2D080023
:101B5C00831203137408003A031DC92D7508003A4B
:101B6C00031DC92D7608003A031DC92D7708003ACC
:101B7C00031DC92DFF30F000FF30F1007F30F20063
:101B8C00FF30F3006C2E8312031377080319582EC1
:101B9C00730803195D2E720876068039FA00F21765
:101BAC00F617A1017208F8007108FC007008FD001E
:101BBC007408FD027508031C750FFC027608031CE3
:101BCC00760FF802F801FC01FD01031CF42D031043
:101BDC00F20CF10CF00CF80C0130A1007708F302B8
:101BEC00031CFE2D7E302107F3070318622E032EF3
:101BFC007E302107F307031C672E1830FA07FD0D02
:101C0C00FC0DF80DF00DF10DF20DA10D7408F002A4
:101C1C007508031C750FF1027608031C760FF2028F
:101C2C00760DA104211C1C2E7D14272E7408F007A0
:101C3C0075080318750FF10776080318760AF20772
:101C4C007D10FA031F307A05031D052E7B1B7D1CAE
:101C5C004E2E0310F00DF10DF20DA10D7408F002D3
:101C6C007508031C750FF1027608031C760FF2023F
:101C7C00760D21040139FD070318FC0A0319F80A33
:101C8C00031D4E2EF80CFC0CFD0CF30A0319622EEE
:101C9C00FA1FF8137808F2007C08F1007D08F000B8
:101CAC0000306B2E01308A1112278A156B2E0230F0
:101CBC008A112A208A156B2E04308A111E208A154F
:0E1CCC006B2E08308A1131208A1500000800A6
:101CDA00672FE72E8312031354088316CF0083124B
:101CEA0055088316D000831256088316D100831232
:101CFA0057088316D200D3016825012F83124108A1
:101D0A008316CF00831242088316D0008312430839
:101D1A008316D100831244088316D2000430D300FC
:101D2A006825012F83123D088316CF0083123E08CF
:101D3A008316D00083123F088316D100831240080D
:101D4A008316D2000830D3006825012F8312390880
:101D5A008316CF0083123A088316D00083123B08F9
:101D6A008316D10083123C088316D2000C30D300AC
:101D7A006825012F831245088316CF00831246086F
:101D8A008316D000831247088316D10083124808AD
:101D9A008316D2001030D3006825012F83124D0814
:101DAA008316CF0083124E088316D00083124F0881
:101DBA008316D100831250088316D2001430D30040
:101DCA006825012F831203135808023A03196F2E4C
:101DDA005808043A0319832E5808063A0319972E0D
:101DEA005808133A0319AB2E5808153A0319BF2E8F
:101DFA005808173A0319D32E8312D80A83164208B1
:101E0A00003A031D0C2F05308312D3000F2F8312C3
:101E1A000430D3007C225808073A0319242F5808A3
:101E2A00183A0319242FC0308316EF008A116C2048
:101E3A008A150F308316EF008A116C208A15752FC8
:101E4A00D80383164108003A031D2F2F0530831249
:101E5A00D300322F83120430D3007C220F30831632
:101E6A00EF008A116C208A15C0308316EF008A11A0
:101E7A006C208A15752FD803D3017C22C0308316B3
:101E8A00EF008A116C208A158316C301C4018030C1
:101E9A004406F00080307002031D552F05304302BE
:101EAA000318612F1430EF008A116C208A158316EB
:101EBA00C30A0319C40A4C2F0F30EF008A116C2091
:101ECA008A15752F831203135908013A03196E2EC6
:101EDA005908023A0319252F5908033A0319402FC2
:021EEA000800EE
:101EEC00831603133408F0003508F1003608F200AD
:101EFC003708F300F00A0319F10A0319F20A03195F
:101F0C00F30A7008B4007108B5007208B6007308C3
:101F1C00B700F030831287055A08F4000030F41B28
:101F2C00FF30F500F600F70083163408F000350892
:101F3C00F1003608F2003708F3008A1112238A15D3
:101F4C007808F0007908F1007A08F2007B08F300B9
:101F5C007008223E8400000887044D088316E000B8
:101F6C0083124E088316E10083124F088316E20099
:101F7C00831250088316E3008A117E278A15080005
:101F8C008A11CA218A150A128000840AD10A0319FF
:0A1F9C00D20AF003031DC62F08004F
:102000005D29F828831203134508F0004608F10003
:102010004708F2004808F3000A30F400F501F60121
:10202000F7010A1264260A160A1235250A167008E4
:10203000C9007108CA007208CB007308CC000530D3
:10204000F000F101F201F3014508F4004608F50043
:102050004708F6004808F7000A1264260A160A1212
:1020600035250A1670088316CF007108D000720853
:10207000D1007308D200FF30D3008A150A12AC20B9
:102080008A110A160E294508F0004608F100470893
:10209000F2004808F3000A30F400F501F601F701F8
:1020A0000A1264260A160A1235250A167008C90093
:1020B0007108CA007208CB007308CC004508F00014
:1020C0004608F1004708F2004808F3000A123525D7
:1020D0000A1670088316CF007108D0007208D1006C
:1020E0007308D200FF30D3008A150A12AC208A117F
:1020F0000A160E290E30D8008A150A127C228A117F
:102100000A160E294508F0004608F1004708F200BB
:102110004808F3000A30F400F501F601F7010A124D
:1021200064260A160A1235250A167008C9007108B5
:10213000CA007208CB007308CC004508F0004608BE
:10214000F1004708F2004808F3000A1235250A1684
:1021500070088316CF007108D0007208D100730890
:10216000D2000130D3008A150A12AC208A110A1657
:102170000E294508F0004608F1004708F20048081B
:10218000F3000A30F400F501F601F7010A126426A3
:102190000A160A1235250A167008C9007108CA0005
:1021A0007208CB007308CC000530F000F101F20199
:1021B000F3014508F4004608F5004708F600480812
:1021C000F7000A1264260A160A1235250A16700844
:1021D0008316CF007108D0007208D1007308D200B6
:1021E0000130D3008A150A12AC208A110A160E2972
:1021F000831203135808093A0319022858080A3AA7
:102200000319432858080B3A03197A2858080C3A3E
:102210000319822858080D3A0319B9286B29232974
:10222000D80AC901CA01CB01CC018A150A127C2245
:102230008A110A1637290930D8008A150A127C2219
:102240008A110A1637295808093A0319102958081B
:102250000A3A0319102958080B3A0319102958088B
:102260000C3A0319102958080D3A03191B296B2938
:1022700048290D30D8008A150A127C228A110A16C4
:102280005C29D8038A150A127C228A110A165C2955
:102290005808093A0319392958080A3A03194129F3
:1022A00058080B3A0319412958080C3A03194129D7
:1022B00058080D3A031941296B2983120313590851
:1022C000013A031901285908023A03190F2959083C
:0822D000033A03193829080044
:1022D800522A142A093083120313D8008A150A12C5
:1022E8007C228A110A162E2A1230D8000530D30013
:1022F8008A150A127C228A110A16C0308316EF004A
:102308000A126C200A160F308316EF000A126C208E
:102318000A162E2A0130D8000530D3008A150A1271
:102328007C228A110A16C0308316EF000A126C202C
:102338000A160F308316EF000A126C200A162E2A8E
:102348001030D8000130EC004108F0004208F100DC
:102358004308F2004408F3004508F4004608F50075
:102368004708F6004808F7000A1264260A160A12F7
:1023780035250A1670088316C1007108C200720854
:10238800C3007308C40083123908F0003A08F1004A
:102398003B08F2003C08F3000A1235250A16003003
:1023A800F4000030F5007A30F6008830F7000A12A1
:1023B800A6250A167008F4007108F5007208F600E0
:1023C8007308F70083164108F0004208F10043083B
:1023D800F2004408F3008A150A12AE258A110A167B
:1023E8007008E8007108E9007208EA007308EB0059
:1023F8008316B401B501B601B7018312C901CA0138
:10240800CB01CC018316B801B901BA01BB01013077
:102418008312ED008A150A127C228A110A162E2AC6
:10242800831203135808073A03196E295808083A03
:10243800031978295808193A0319782958080E3ABF
:1024480003198E295808183A03198E2958080F3A83
:102458000319A429602A342AD80A4C2AD8034C2AFA
:102468005808073A0319302A58080E3A0319302A2F
:102478005808183A0319302A5808083A0319322A12
:1024880058080F3A0319322A5808193A0319322AF8
:102498008A150A127C228A110A16602A83120313EB
:1024A8005908013A03196D295908023A03192F2AC4
:0A24B8005908033A03192F2A0800FF
:1024C200EF2C831203135C08003A031D712A0E30AD
:1024D2008316EF000A126C200A160130DC00782AFB
:1024E2000F308316EF000A126C200A16DC01FD2C55
:1024F2005C08003A031DB72AD30383164208053C41
:10250200F100F201031CF2030130C21F0030F20796
:1025120000308312D31BFF307206031D922A71080A
:102522005306031DA12A14308316EF000A126C20F1
:102532000A1614308316EF000A126C200A16B62A05
:1025420080305306F0008030003A70020318B02A3F
:10255200D80A8A150A127C228A110A16B62A14305F
:102562008316EF000A126C200A16B22B5308831648
:10257200CF008A150A1249228A110A167008CB0066
:102582007108CC007208CD007308CE004B08C3005E
:102592004C08C4004D08C5004E08C600410884001E
:1025A2000008C700840A0008C800840A0008C9009D
:1025B200840A0008CA000A30F000F101F201F301B6
:1025C2004B08F4004C08F5004D08F6004E08F700E1
:1025D2000A1264260A167008F4007108F5007208DF
:1025E200F6007308F70083164708F0004808F10068
:1025F2004908F2004A08F3000A1212230A16780860
:10260200F0007908F1007A08F2007B08F300700804
:102612008316C7007108C8007208C9007308CA008F
:102622000930F000F101F201F3014B08F4004C080B
:10263200F5004D08F6004E08F7000A1264260A1645
:10264200803083164A06F400803073067402031D3C
:10265200342B72084902031D342B71084802031DF2
:10266200342B70084702031C702B0930F000F10173
:10267200F201F3014308F4004408F5004508F600AE
:102682004608F7000A1264260A16831641088400D7
:102692000008F400840A0008F500840A0008F60025
:1026A200840A0008F7007008F4027108031C710F15
:1026B200F5027208031C720FF6027308031C730FF3
:1026C200F70241088400740880007508840A8000BB
:1026D2007608840A80007708840A8000982B4108D3
:1026E20084000008F000840A0008F100840A00084F
:1026F200F200840A0008F3004308F00744080318B4
:10270200440FF10745080318450FF207460803185E
:10271200460FF30741088400700880007108840A9C
:1027220080007208840A80007308840A80008A1577
:102732000A127C228A110A16C0308316EF000A128E
:102742006C200A1683164208CF008A150A12D82175
:102752008A110A160E3083160313EF000A126C2038
:102762000A16FD2C5C08003A031D0C2CD30A8316B2
:102772004208003A0319DF2B4208063CF100F2013D
:10278200031CF2030130C21F0030F2070030831233
:10279200D31BFF307206031DD02B71085306031D95
:1027A200DF2B10308316EF000A126C200A1610304D
:1027B2008316EF000A126C200A160B2C83164208AD
:1027C200003A0319EE2B8030043AF0008030831275
:1027D200530670020318EE2BF82B83128030053A51
:1027E200F000803053067002031CF82B052C0C30CD
:1027F2008316EF000A126C200A16D80A8A150A12EA
:102802007C228A110A160B2C10308316EF000A1252
:102812006C200A16EE2C53088316CF008A150A1272
:1028220049228A110A167008CB007108CC0072087E
:10283200CD007308CE004B08C3004C08C4004D08FD
:10284200C5004E08C600410884000008C700840A7B
:102852000008C800840A0008C900840A0008CA00E7
:102862000A30F000F101F201F3014B08F4004C08C8
:10287200F5004D08F6004E08F7000A1264260A1603
:102882007008F4007108F5007208F6007308F7008A
:1028920083164708F0004808F1004908F2004A0888
:1028A200F3000A1212230A167808F0007908F100E0
:1028B2007A08F2007B08F30080307306F40080305F
:1028C20083164E067402031D702C4D087202031DFE
:1028D200702C4C087102031D702C4B0870020318F7
:1028E200AC2C0930F000F101F201F3014308F400CD
:1028F2004408F5004508F6004608F7000A12642667
:102902000A168316410884000008F400840A0008AD
:10291200F500840A0008F600840A0008F70074082B
:10292200F00775080318750FF10776080318760F7C
:10293200F20777080318770FF3074108840070083D
:1029420080007108840A80007208840A800073087B
:10295200840A8000D42C410884000008F000840A14
:102962000008F100840A0008F200840A0008F3005B
:102972004308F0024408031C440FF1024508031CFB
:10298200450FF2024608031C460FF3024108840079
:10299200700880007108840A80007208840A80002E
:1029A2007308840A80008A150A127C228A110A1688
:1029B200C0308316EF000A126C200A1683164208F2
:1029C200CF008A150A12D8218A110A160E308316F0
:1029D2000313EF000A126C200A16FD2C8312031354
:1029E2005908013A0319622A5908023A0319792A45
:0A29F2005908033A0319B32B08003B
:1029FC00B92D543083160313C100C20161221F2E5E
:102A0C008316C1010330C2008A150A126D268A1181
:102A1C000A161F2E41308316C1000330C2006122FA
:102A2C001F2E03308316C1000430C2008A150A120F
:102A3C006D268A110A161F2E3D308316C1000430F4
:102A4C00C20061221F2E04308316C100C2018A15F8
:102A5C000A126D268A110A161F2E39308316C100F0
:102A6C00C20161221F2E8316C101C2018A150A12EE
:102A7C006D268A110A161F2E45308316C100C2011D
:102A8C0061221F2E8316C101C2018A150A126D26FE
:102A9C008A110A161F2E4D308316C100C201612205
:102AAC001F2E8316C101C2018A150A126D268A11C6
:102ABC000A161F2E6C211F2E00201F2E852DEC01B7
:102ACC000130D8000530D3008A150A127C228A11F5
:102ADC000A16C0308316EF000A126C200A160F304B
:102AEC008316EF000A126C200A168D2DEC011130A2
:102AFC00D8008A150A127C228A110A168D2D5908C3
:102B0C00013A0319652D5908023A03197C2D1F2E21
:102B1C00B02DEC010130D8000530D3008A150A1213
:102B2C007C228A110A16C0308316EF000A126C2020
:102B3C000A160F308316EF000A126C200A16B82DF5
:102B4C000130EC001030D8008A150A127C228A1150
:102B5C000A16B82D5908013A03198F2D5908033A52
:102B6C000319A62D1F2E831203135808013A0319BB
:102B7C00FF2C5808023A0319062D5808033A03197A
:102B8C00102D5808043A0319172D5808053A031943
:102B9C00222D5808063A0319292D5808123A031900
:102BAC00332D5808133A0319392D5808143A0319C0
:102BBC00422D5808153A0319482D5808163A03198E
:102BCC00512D5808173A0319572D5808073A03196D
:102BDC00602D5808083A0319602D58080E3A03194D
:102BEC00602D58080F3A0319602D5808183A03192C
:102BFC00602D5808193A0319602D5808093A031921
:102C0C00622D58080A3A0319622D58080B3A031919
:102C1C00622D58080C3A0319622D58080D3A031905
:102C2C00622D5808103A0319642D5808113A0319EB
:042C3C008E2D0800D1
:102C4000831203136E0884008001840A8001840AC1
:102C50008001840A80018316C00180304006F000A4
:102C60008030043A70020318992E83126E08840093
:102C70000008F500840A0008F600840A0008F7003E
:102C8000840A0008F8007708F3007608F200750857
:102C9000F100F0016E088400700880007108840A59
:102CA00080007208840A80007308840A80006F081C
:102CB00083164007C1000A12EB270A1603136E0899
:102CC00084000008F500840A0008F600840A000861
:102CD000F700840A0008F8007008F100F201F3011F
:102CE000F4017508F10776080318760FF2077708E4
:102CF0000318770FF30778080318780FF4076E08A6
:102D00008400710880007208840A80007308840AB5
:102D100080007408840A80003430FC00F130FD002B
:102D2000FD0B902EFC0B902E000000008316C00AB5
:042D30002D2E08003C
:102D340083160313081288128811081188100810CA
:102D440083120812881208108810081188110A12B8
:102D540003200A160A1203200A160A1203200A166E
:102D64000815881508160A1217200A1608120A12DE
:102D740003200A1608160A1217200A1608120A1245
:102D840003200A1608160A1217200A1608120A1235
:102D940003200A16881108160A1217200A160812A8
:102DA4000A1203200A1608160A1217200A16081215
:102DB4000811081408160A1217200A1608120A1213
:102DC40003200A160810881508160A1217200A1676
:102DD4000812881108160A1217200A1608120A1275
:102DE40003200A1608160A1217200A160812881554
:102DF40008160A1217200A1608120A1203200A16C5
:102E0400881108160A1217200A16081208148814C2
:102E14000815881508160A1217200A1608120A122D
:082E240003200A1667140800E0
:10300000083083120313A2000230A3000430A4008E
:103010000130A500A601A701A801A9014430AA001A
:103020004F30AB004E30AC004530AD00AE0120302B
:10303000AF006F30B0006630B1002030B200B30195
:103040002030B4006F30B5006630B6002030B700D5
:10305000B8018A119A268A1501308316EF008A1169
:103060000A126C208A150A1607308316860083120E
:103070008601831687010130B400B501B601B7019E
:1030800000308312C9000030CA000030CB007F300E
:10309000CC000130D8000530D300DC010130ED0058
:1030A0000430DA00883087005430EE001830EF002A
:1030B0008A1120268A1583125708003A031D6A28B0
:1030C0005608043A031D6A285508CB3A031D6A289E
:1030D00054082C3A0319B0288316CF01D001D1012E
:1030E000D201D3010A1268250A16CF01D001D101FD
:1030F000D2010430D3000A1268250A16CF01D0018C
:10310000D101D2010830D3000A1268250A16CF0176
:10311000D001D101D2010C30D3000A1268250A1661
:10312000CF01D001D101D2011030D3000A1268259D
:103130000A166430CF00D001D101D2011430D3007F
:103140000A1268250A162C30CF00CB30D00004308C
:10315000D1000030D2001830D3000A1268250A16B8
:1031600054308312EE00EF018A1120268A15413077
:103170008312EE000430EF008A1120268A153D30BC
:103180008312EE000830EF008A1120268A153930AC
:103190008312EE000C30EF008A1120268A1545308C
:1031A0008312EE001030EF008A1120268A154D3070
:1031B0008312EE001430EF008A1120268A15831244
:1031C000DB010A127C220A160F308316EF008A11E7
:1031D0000A126C208A150A16C0308316EF008A1175
:1031E0000A126C208A150A165B08023A031DFD2894
:1031F0008A11FE248A15DB011829061D04290130D5
:10320000D9000130DB001829861C0B290230D900B7
:103210000130DB001829061C12290330D9000130C7
:10322000DB0018295B08013A031D18290230DB0076
:103230006C08013A031DF02A5B08003A031DF02ACE
:103240000A1276270A16831268088316CF008312A3
:1032500069088316D00083126A088316D10083128E
:103260006B088316D20083126D088316D3000A12EE
:10327000AC200A163908F4003A08F5003B08F600BD
:103280003C08F70083163408F0003508F1003608D2
:10329000F2003708F3008A110A1212238A150A165F
:1032A0007808F0007908F1007A08F2007B08F30052
:1032B0000030F4007306031D672974087206031DAD
:1032C000672974087106031D67297008003A031DF9
:1032D0000E2A83163808F0003908F1003A08F20087
:1032E0003B08F300F00A0319F10A0319F20A031963
:1032F000F30A7008B8007108B9007208BA007308C0
:10330000BB000A127C220A1683163B08831257065A
:10331000031D9A2983163A0883125606031D9A291B
:103320008316390883125506031D9A298316380817
:1033300083125406031DD62901308316EF008A112B
:103340000A126C208A150A1601308316EA0007302B
:10335000EB002A30EC008A110A12F2248A150A16B0
:103360000B30FB002630FC005D30FD00FD0BB62964
:10337000FC0BB629FB0BB62900000000EC01013064
:10338000D8000530D3000A127C220A16C0308316FA
:10339000EF008A110A126C208A150A160F30831664
:1033A000EF008A110A126C208A150A166D08003A7D
:1033B00003190E2A5A08F4000030F41BFF30F50000
:1033C000F600F70083163408F0003508F1003608DF
:1033D000F2003708F3008A110A1212238A150A161E
:1033E0007808F0007908F1007A08F2007B08F30011
:1033F0000030F4007306031D072A74087206031DCB
:10340000072A74087106031D072A7008003A031D75
:103410000E2A8316B401B501B601B70183126D08F7
:10342000003A0319B72A3D08F0003E08F1003F08B2
:10343000F2004008F3004508F4004608F50047088C
:10344000F6004808F7008A110A1264268A150A163F
:103450008A110A1235258A150A160030F400003048
:10346000F5004830F6008530F7000A12AE250A163E
:103470007008F4007108F5007208F6007308F70090
:103480004908F0004A08F1004B08F2004C08F3002C
:103490008A110A12F3238A150A160130031C003020
:1034A000F0007008031D6D2A4908F4004A08F50071
:1034B0004B08F6004C08F700F001F101F201F301AE
:1034C0008A110A12F3238A150A160130031C0030F0
:1034D000F0007008031D6D2AB72AED013908F000CD
:1034E0003A08F1003B08F2003C08F3008A110A1286
:1034F00035258A150A160030F4000030F50000303A
:10350000F6008030F7000A12AE250A1670088316FE
:10351000BC007108BD007208BE007308BF0034080B
:10352000F0003508F1003608F2003708F3008A1180
:103530000A1235258A150A1683163C08F4003D0840
:10354000F5003E08F6003F08F7008A110A122A210A
:103550008A150A168A110A1243248A150A16700857
:10356000DD007108DE007208DF007308E0006D08FE
:10357000003A031DF02A8316370883126006031DE4
:10358000D12A8316360883125F06031DD12A8316BB
:10359000350883125E06031DD12A83163408831270
:1035A0005D06031DF02A4908F4004A08F5004B089F
:1035B000F6004C08F700F001F101F201F3018A1165
:1035C0000A12F3238A150A16013003180030F0009E
:1035D00070080319EE2AFF30ED00F02A0130ED00EB
:0435E000F428F12AB0
:101FA6003C344D3445344E3455343E34203420349C
:101FB600203420345334543441345234543420348D
:021FC6000034E5
:101FC80020344D3445344E345534203420342034B4
:101FD80020343C34533454344134523454343E3431
:021FE8000034C3
:101FEA00203420342034203420344E3445345834BC
:061FFA00543420340034D1
:102E2C00503472346F3467347234653473347334A1
:102E3C0020342034203420342034203420342034E6
:022E4C00003450
:102E4E003C343C342034203420343C342034203480
:102E5E0020346F343E342034203420343E343E341B
:022E6E0000342E
:102E70003C343C342034203420343C34203420345E
:102E8000203420343E34203420346F343E343E34F9
:022E900000340C
:102E9200533465347434753470342034733461348B
:102EA20076346534643420342034203420342034A1
:022EB2000034EA
:102EB400503472346F346734723465347334733419
:102EC400203470346134753473346534643420349C
:022ED4000034C8
:102ED600533465347434743469346E3467347334FB
:102EE60020347334613476346534643420342034C9
:022EF6000034A6
:102EF8003C344D3445344E3455343E342034533408
:102F080045345434543449344E34473453342034DB
:022F1800003483
:102F1A0020344D3445344E34553420343C34533403
:102F2A0045345434543449344E34473453343E349B
:022F3A00003461
:102F3C0053347434653470347334203470346534E1
:102F4C00723420347434753472346E34203420343A
:022F5C0000343F
:102F5E0053347434653470347334203470346534BF
:102F6E00723420346D346D342034203420342034C7
:022F7E0000341D
:102F800053347434653470342034643465346C34B0
:102F900061347934203469346E3420346D347334C0
:022FA0000034FB
:102FA2003C343C342034203420343C3453344134D7
:102FB200563445343E342034203420343E343E34BA
:022FC2000034D9
:102FC400533465347434743469346E34673473340C
:102FD400203420342034203420342034203420344D
:022FE4000034B7
:102FE60020342034203420343C344E344534583494
:062FF60054343E340034A7
:1035E4003C3453344B34493450343E342034203446
:1035F4002034203445344E34543445345234203449
:02360400003490
:103606005734693472346534203477346934643419
:103616007434683420342034203420342034203468
:0236260000346E
:1036280043346F3469346C3420346C3465346E340C
:1036380067347434683420342034203420342034FF
:0236480000344C
:10364A003C343C346F34203420343C34203420342D
:10365A00203420343E342034203420343E343E3466
:02366A0000342A
:10366C003C343C342034203420343C346F3420340B
:10367C00203420343E342034203420343E343E3444
:02368C00003408
:10368E00203453344B3449345034203420342034D5
:10369E0020343C3445344E345434453452343E3464
:0236AE000034E6
:1036B0004D346F347634653420346334613472347D
:1036C00072346934613467346534203420342034F2
:0236D0000034C4
:1036D2004E3475346D3462346534723420346F3450
:1036E200663420347434753472346E347334003476
:1036F2006D346D34203420343C344E3445345834E7
:0637020054343E34003493
:103708006D346D342034203420344E3445345834EC
:063718005434203400349B
:02400E004A2F37
:00000001FF
