:02000000102AC4
:10000800FF00030E8301D9000A08D8008A0170088E
:10001800A2007C08A1007D08A0008C1C1728D50A26
:100028000319D60A8C100B1C3A288B11861E2C2813
:100038008230FC00DD30FD00FD0B2028FC0B202861
:1000480000000000D501D6013F30920087103A2801
:10005800861F3A283B3092005508D300571454089D
:100068005502031C392887143A2887100B108B1562
:100078002208F0002108FC002008FD0058088A002A
:0A008800590E8300FF0E7F0E0900E1
:0600920000000000080060
:0E009800213083120313FD00FD0B50280800D9
:1000A6000F3083120313FC004730FD00FD0B592867
:0A00B600FC0B5928000000000800B0
:1000C00083120313F801F9011030FC00710DF80DD3
:1000D000F90D7408F8027508031C750FF90203186E
:1000E00078287408F80775080318750FF9070310C6
:0A00F000F00DF10DFC0B662808006E
:1000FA0083120313EF1B83288813842888176F1B26
:10010A008828081389280817EF1A8D2888128E283C
:10011A0088166F1A9228081293280816D718972853
:10012A00081598280811881549208811EF199F2861
:10013A008813A02888176F19A4280813A528081758
:10014A00EF18A9288812AA2888166F18AE2808124C
:10015A00AF280816D718B3280815B4280811881527
:10016A0049208811D71CBB285320BC284C200800E2
:10017A0083120313D7106A08EF007D20D7140800F2
:0E018A008312031352088A00510882000800F5
:1001980083120313ED0105306D020318DA286D0888
:1001A8006C07840020308000ED0ACF286D086C07AA
:1001B80084008001ED036D086C07EE000A30F4003E
:1001C800F5016A08F0006B08F10060207808F0007B
:1001D8007908F1003030F0076E088400700880005C
:1001E8000A30F400F5016A08F0006B08F10060209D
:1001F8007008EA007108EB0000307106031D06293B
:1002080000307006031D09290B29ED03DF280800BB
:1002180083120313E601E7016108E8006208E900B8
:1002280080306206F00080307002031D1D29003006
:10023800610203182B290130E6000030E70061084D
:10024800003CE8006208031C013EE901E902680875
:10025800EA006908EB006308EC00CC200630E400F3
:100268000030E5006508003C031D3C296408003C9B
:100278000318572964086307F20001306402F0008C
:100288000030031C013E6502F1007008630784001A
:100298000008F00072088400700880000130E40251
:1002A800031CE503362963088400203080006608B3
:1002B800670403197529E401E501640863078400EC
:1002C8000008203A031D6C29E40A0319E50A61298C
:1002D8000130E402031CE5036408630784002D3041
:0402E800800008008A
:1002EC008829803083120313E1009B29C030E10080
:1002FC009B299430E1009B29D430E1009B2980306C
:10030C00E1009B29831203136108013A0319772931
:10031C006108023A03197C296108033A03197F2901
:10032C006108043A0319822985296203F0006108E7
:10033C00F0077008E1007008EF007D20D710E40191
:10034C0064086307840000080319B4296408630770
:10035C0084000008EA00BD20E40AA629D71408008E
:10036C00C5208A110A128000840AD10A0319D20A04
:08037C00F003031DB62908007F
:10038400831603138811081108128812081388139E
:100394008312881108118813081388120812532035
:1003A4005320532088160816881549208811532095
:1003B4008815492088115320881549208811532015
:1003C400081288154920881153208815492088115E
:1003D4008812881788154920881153208813081615
:1003E400881549208811081288154920881153203E
:1003F400881549208811081688154920881153202A
:1004040008128815492088118817081788160816B5
:0C0414008815492088115320D7140800D7
:10042000B222C2210130EF007D200C30EF007D2090
:10043000A030831686008701831287108B170B1755
:100440000B108B150130E1000130E2002330E30096
:1004500076210230E1000130E2004630E3007621EF
:100460000430FB000C30FC003330FD00FD0B362A5D
:10047000FC0B362AFB0B362A000000000130EF008F
:100480007D203B3092009101FF3083169200831251
:10049000571083168C1414308312D4005508D300DF
:1004A0005508E100E2015A30E3000C210130E1007F
:1004B0000130E2005A30E3007621871C672A0230BF
:1004C000E1000130E2003C30E30076216E2A023088
:1004D000E1000130E2003130E3007621571C7D2A33
:1004E0000230FB008630FC009930FD00FD0B762ABF
:0E04F000FC0B762AFB0B762A57104E2A7E2A2A
:10056400233084002E3083120313F0008430D10032
:080574000230D200B62108009C
:100508004434653476343A34203473346B3461348B
:0C0518006C34653473346D34733400347B
:100524002034203420342034203420342034203427
:06053400203420340034E5
:10053A004F345634453452345334503445344534A8
:04054A004434003401
:10054E00403467346D34613469346C342E34633422
:06055E006F346D3400341F
:02400E004A2F37
:00000001FF
